:100000000C948B000C94AA000C94AA000C94AA00E7
:100010000C94AA000C94AA000C94AA000C94AA00B8
:100020000C94AA000C94AA000C94AA000C94AA00A8
:100030000C94AA000C94AF020C94AA000C94AA0091
:100040000C94AA000C94AA000C94AA000C94AA0088
:100050000C94AA000C94AA000C94AA000C94AA0078
:100060000C94AA000C94AA000C94AA000C94AA0068
:100070000C94AA000C94AA000C94AA000C94AA0058
:100080000C94AA000C94AA000C94AA004A04AF0491
:10009000AF04AF04AF04AF04AF04AF04AF04AF04C8
:1000A000AF04AF04AF04AF04AF04AF04AF04AF04B8
:1000B000AF04AF04AF04AF04AF04AF04AF04AF04A8
:1000C000AF04AF04AF04AF04AF04AF04AF04AF0498
:1000D000AF04A904AF04AF04AF04AF04AF04AF048E
:1000E0009E04AF04AF04AF04AF04AF04A4045004F3
:1000F00056045C04620468046E0474047A04800488
:10010000AF04AF04AF04AF04AF04AF04AF04860480
:100110008C049204980411241FBECFEFD0E4DEBFFC
:10012000CDBF11E0A0E0B1E0E4EDF9E000E00BBFED
:1001300002C007900D92A430B107D9F711E0A4E0F6
:10014000B1E001C01D92AC30B107E1F70E9411048B
:100150000C94E8040C940000CF93DF93CDB7DEB786
:1001600060970FB6F894DEBF0FBECDBF6D837E8360
:100170008F83988729873A874B875C878D819E81FB
:10018000AF81B88529853A854B855C85BC01CD0159
:100190000E94BD04DC01CB0189839A83AB83BC83BD
:1001A00089819A81AB81BC810097A105B10529F4B1
:1001B00089859A85AB85BC8511C089859A85AB8573
:1001C000BC858D839E83AF83B88789819A81AB81FB
:1001D000BC8189879A87AB87BC87D0CFBC01CD0112
:1001E00060960FB6F894DEBF0FBECDBFDF91CF9102
:1001F0000895CF93DF9300D01F92CDB7DEB78983E8
:100200006A834B838B81882379F08A81282F30E0A1
:1002100081E090E0022E02C0880F991F0A94E2F755
:10022000982F8981892B0FC08A81282F30E081E0A7
:1002300090E0022E02C0880F991F0A94E2F7982FCF
:100240009095898189230F900F900F90DF91CF9126
:100250000895CF93DF9300D0CDB7DEB789836A834B
:100260008A81282F30E081E090E0022E02C0880FC2
:10027000991F0A94E2F7982F898189230F900F9094
:10028000DF91CF9108950F931F93CF93DF93CDB755
:10029000DEB708E210E040E064E08FEF0E94F90072
:1002A000F8018083000086E290E0FC018081809567
:1002B00060E00E942901882311F081E3D3C086E227
:1002C00090E0FC018081809561E00E9429018823F3
:1002D00011F084E3C7C086E290E0FC018081809544
:1002E00062E00E942901882311F087E3BBC086E207
:1002F00090E0FC018081809563E00E9429018823C1
:1003000011F08AE2AFC008E210E040E065E08FEF54
:100310000E94F900F8018083000086E290E0FC0171
:100320008081809560E00E942901882311F082E39A
:1003300099C086E290E0FC018081809561E00E9496
:100340002901882311F085E38DC086E290E0FC014D
:100350008081809562E00E942901882311F088E362
:1003600081C086E290E0FC018081809563E00E947C
:100370002901882311F080E375C008E210E040E015
:1003800066E08FEF0E94F900F8018083000086E2AA
:1003900090E0FC018081809560E00E942901882323
:1003A00011F083E35FC086E290E0FC0180818095DC
:1003B00061E00E942901882311F086E353C086E2A0
:1003C00090E0FC018081809562E00E9429018823F1
:1003D00011F089E347C086E290E0FC0180818095BE
:1003E00063E00E942901882311F083E23BC008E208
:1003F00010E040E067E08FEF0E94F900F801808391
:10040000000086E290E0FC018081809560E00E941F
:100410002901882311F081E425C086E290E0FC01E7
:100420008081809561E00E942901882311F082E497
:1004300019C086E290E0FC018081809562E00E9414
:100440002901882311F083E40DC086E290E0FC01CD
:100450008081809563E00E942901882311F084E463
:1004600001C080E0DF91CF911F910F910895CF934C
:10047000DF9300D000D0CDB7DEB769837A838B835A
:100480009C8389819A81AB81BC8180930001909388
:100490000101A0930201B0930301809100019091AA
:1004A0000101A0910201B091030180930501909395
:1004B0000601A0930701B09308010F900F900F90D1
:1004C0000F90DF91CF910895CF93DF93CDB7DEB733
:1004D00081E890E02BE0FC01208388E890E02DE7A4
:1004E00030E0FC01318320838FE690E022E0FC01C4
:1004F000208384E890E0FC01118210828091000149
:1005000090910101A0910201B09103018093050136
:1005100090930601A0930701B09308018FE590E046
:100520002FE530E0F90120812068FC012083DF9174
:10053000CF910895CF93DF93CDB7DEB781E890E0F8
:10054000FC011082DF91CF910895CF93DF93CDB757
:10055000DEB781E080930401DF91CF9108951F926F
:100560000F9200905F000F92112400905B000F9299
:100570002F933F934F935F936F937F938F939F93AB
:10058000AF93BF93EF93FF93CF93DF93CDB7DEB7D6
:100590008091050190910601A0910701B091080199
:1005A0000197A109B1098093050190930601A093D9
:1005B0000701B09308018091050190910601A09177
:1005C0000701B09108010097A105B10591F40E94BF
:1005D000A5028091000190910101A0910201B091CA
:1005E00003018093050190930601A0930701B09346
:1005F0000801DF91CF91FF91EF91BF91AF919F9152
:100600008F917F916F915F914F913F912F910F90BB
:1006100000925B000F9000925F000F901F90189562
:10062000CF93DF9300D01F92CDB7DEB79B838A8331
:1006300080E290E0FC018081882F90E08170992712
:1006400021E0009709F020E029838A819B81813095
:10065000910579F08230910589F00097C9F481E025
:100660009981913009F080E0882F90E09B838A8304
:1006700012C082E090E09B838A830DC081E0998163
:10068000992309F480E0882F90E09B838A8303C03C
:100690001B821A8200008A819B818130910549F476
:1006A00090910B0181E0992309F080E080930B0188
:1006B00001C000008A819B810F900F900F90DF9105
:1006C000CF910895CF93DF9300D0CDB7DEB79A8353
:1006D000898389819A81009721F08130910561F0A9
:1006E00016C090910B0181E0992309F080E0882FDA
:1006F00090E09A8389830EC090910B0181E0992349
:1007000009F080E0882F90E09A83898303C01A82E1
:100710001982000089819A81009761F081309105EA
:1007200051F49091090181E0992309F080E08093D0
:10073000090101C0000089819A810F900F90DF911B
:10074000CF910895CF93DF9300D0CDB7DEB79A83D2
:10075000898389819A81009721F08130910561F028
:1007600016C090910B0181E0992309F080E0882F59
:1007700090E09A8389830EC090910B0181E09923C8
:1007800009F080E0882F90E09A83898303C01A8261
:100790001982000089819A81009761F0813091056A
:1007A00051F490910A0181E0992309F080E080934F
:1007B0000A0101C0000089819A810F900F90DF919A
:1007C000CF910895CF93DF9300D01F92CDB7DEB7BE
:1007D0009B838A838A819B81009719F41B821A82EA
:1007E00003C01B821A8200008A819B81009761F4FA
:1007F00080910A01882F90E0880F991F982F80918F
:100800000901892B8983000085E290E02981FC01A0
:1008100020838A819B810F900F900F90DF91CF9161
:100820000895CF93DF931F92CDB7DEB787E290E0B4
:1008300020EFFC01208388E290E02FE0FC01208380
:1008400084E290E02FEFFC01208385E290E0FC0140
:10085000108261E070E080E090E00E9437020E9428
:1008600064020E94430189838981882F90E0AA272E
:1008700097FDA095BA2F40E050E024E430E0841BBF
:10088000950B2817390708F46AC08A5B9F4FFC0153
:100890000C94DF0485E290E02FE1FC01208365C029
:1008A00085E290E021E0FC0120835FC085E290E0DA
:1008B00022E0FC01208359C085E290E023E0FC01A6
:1008C000208353C085E290E024E0FC0120834DC0EA
:1008D00085E290E025E0FC01208347C085E290E0BE
:1008E00026E0FC01208341C085E290E027E0FC0186
:1008F00020833BC085E290E028E0FC01208335C0E6
:1009000085E290E029E0FC0120832FC085E290E0A1
:100910002AE0FC01208329C085E290E02BE0FC0165
:10092000208323C085E290E02CE0FC0120831DC0E1
:1009300085E290E02DE0FC01208317C085E290E085
:100940002EE0FC01208311C085E290E0FC011082C2
:100950000CC085E290E02FE0FC01208306C085E218
:1009600090E02BE1FC012083000000008091040155
:100970008823E1F31092040174CFA1E21A2EAA1B7E
:10098000BB1BFD010DC0AA1FBB1FEE1FFF1FA2173F
:10099000B307E407F50720F0A21BB30BE40BF50B3C
:1009A000661F771F881F991F1A9469F760957095C5
:1009B000809590959B01AC01BD01CF010895EE0F8C
:1009C000FF1F0024001C0BBE0790F691E02D099438
:0409D000F894FFCFC9
:0409D400010000001E
:00000001FF
