:100000000C9446000C9465000C9465000C946500FB
:100010000C9465000C9465000C9465000C946500CC
:100020000C9465000C9465000C9465000C946500BC
:100030000C9465000C945F030C9465000C946500AF
:100040000C9465000C9465000C9465000C9465009C
:100050000C9465000C9465000C9465000C9465008C
:100060000C9465000C9465000C9465000C9465007C
:100070000C9465000C9465000C9465000C9465006C
:100080000C9465000C9465000C94650011241FBE4F
:10009000CFEFD0E4DEBFCDBF11E0A0E0B1E0E8E1FA
:1000A000FBE000E00BBF02C007900D92A430B10747
:1000B000D9F711E0A4E0B1E001C01D92A931B10768
:1000C000E1F70E940E040C948A050C940000CF9373
:1000D000DF93CDB7DEB760970FB6F894DEBF0FBEE3
:1000E000CDBF6D837E838F83988729873A874B871F
:1000F0005C878D819E81AF81B88529853A854B8546
:100100005C85BC01CD010E946805DC01CB018983BF
:100110009A83AB83BC8389819A81AB81BC81009730
:10012000A105B10529F489859A85AB85BC8511C0E7
:1001300089859A85AB85BC858D839E83AF83B8877F
:1001400089819A81AB81BC8189879A87AB87BC877B
:10015000D0CFBC01CD0160960FB6F894DEBF0FBEC4
:10016000CDBFDF91CF910895CF93DF93CDB7DEB7A9
:1001700081E00E94D900DF91CF910895CF93DF9362
:10018000CDB7DEB784E690E00E94790188E30E9453
:10019000D90086E00E94D9008FE00E94D90081E05A
:1001A0000E94D9008AE090E00E947901DF91CF910E
:1001B0000895CF93DF931F92CDB7DEB789838BE28B
:1001C00090E02BE230E0F90120812F7BFC012083BD
:1001D00088E290E02981FC0120838BE290E02BE211
:1001E00030E0F90120812068FC01208300008BE2CF
:1001F00090E02BE230E0F90120812F77FC01208391
:1002000082E090E00E9479010F90DF91CF910895F4
:10021000CF93DF931F92CDB7DEB789838BE290E057
:100220002BE230E0F90120812064FC01208388E288
:1002300090E02981FC0120838BE290E02BE230E00A
:10024000F90120812068FC01208300008BE290E00E
:100250002BE230E0F90120812F77FC01208381E03F
:1002600090E00E9479010F90DF91CF910895CF9394
:10027000DF9300D000D0CDB7DEB78A837C836B8359
:100280000E94B4008A81898311C0898191E0980F0E
:1002900099830E9463018B819C819C012F5F3F4F5A
:1002A0003C832B83FC0180810E9408018B819C810F
:1002B000FC018081882349F70F900F900F900F90D9
:1002C000DF91CF910895CF93DF931F92CDB7DEB723
:1002D00089838981813128F4898181580E94D900DC
:1002E00004C0898181550E94D9000F90DF91CF9180
:1002F0000895CF93DF9300D000D000D0CDB7DEB704
:100300009E838D831A82198214C01C821B8206C0B0
:1003100000008B819C8101969C838B838B819C81C7
:10032000873023E09207A4F389819A8101969A830A
:10033000898329813A818D819E81281739072CF381
:1003400026960FB6F894DEBF0FBECDBFDF91CF91DA
:100350000895CF93DF9300D01F92CDB7DEB7898386
:100360006A834B838B81882379F08A81282F30E040
:1003700081E090E0022E02C0880F991F0A94E2F7F4
:10038000982F8981892B0FC08A81282F30E081E046
:1003900090E0022E02C0880F991F0A94E2F7982F6E
:1003A0009095898189230F900F900F90DF91CF91C5
:1003B0000895CF93DF9300D0CDB7DEB789836A83EA
:1003C0008A81282F30E081E090E0022E02C0880F61
:1003D000991F0A94E2F7982F898189230F900F9033
:1003E000DF91CF9108950F931F93CF93DF93CDB7F4
:1003F000DEB705E210E040E064E08FEF0E94A90163
:10040000F8018083000083E290E0FC018081809508
:1004100060E00E94D901882311F081E3D3C083E218
:1004200090E0FC018081809561E00E94D9018823E1
:1004300011F084E3C7C083E290E0FC0180818095E5
:1004400062E00E94D901882311F087E3BBC083E2F8
:1004500090E0FC018081809563E00E94D9018823AF
:1004600011F08AE2AFC005E210E040E065E08FEFF6
:100470000E94A901F8018083000083E290E0FC0162
:100480008081809560E00E94D901882311F082E389
:1004900099C083E290E0FC018081809561E00E9438
:1004A000D901882311F085E38DC083E290E0FC013F
:1004B0008081809562E00E94D901882311F088E351
:1004C00081C083E290E0FC018081809563E00E941E
:1004D000D901882311F080E375C005E210E040E007
:1004E00066E08FEF0E94A901F8018083000083E29B
:1004F00090E0FC018081809560E00E94D901882312
:1005000011F083E35FC083E290E0FC01808180957D
:1005100061E00E94D901882311F086E353C083E291
:1005200090E0FC018081809562E00E94D9018823DF
:1005300011F089E347C083E290E0FC01808180955F
:1005400063E00E94D901882311F083E23BC005E2F9
:1005500010E040E067E08FEF0E94A901F80180837E
:10056000000083E290E0FC018081809560E00E94C1
:10057000D901882311F081E425C083E290E0FC01D9
:100580008081809561E00E94D901882311F082E486
:1005900019C083E290E0FC018081809562E00E94B6
:1005A000D901882311F083E40DC083E290E0FC01BF
:1005B0008081809563E00E94D901882311F084E452
:1005C00001C080E0DF91CF911F910F910895CF93EB
:1005D000DF9300D000D0CDB7DEB769837A838B83F9
:1005E0009C8389819A81AB81BC8180930001909327
:1005F0000101A0930201B093030180910001909149
:100600000101A0910201B091030180930501909333
:100610000601A0930701B09308010F900F900F906F
:100620000F90DF91CF910895CF93DF93CDB7DEB7D1
:1006300081E890E02BE0FC01208388E890E02DE742
:1006400030E0FC01318320838FE690E022E0FC0162
:10065000208384E890E0FC011182108280910001E7
:1006600090910101A0910201B091030180930501D5
:1006700090930601A0930701B09308018FE590E0E5
:100680002FE530E0F90120812068FC012083DF9113
:10069000CF910895CF93DF93CDB7DEB781E890E097
:1006A000FC011082DF91CF910895CF93DF93CDB7F6
:1006B000DEB781E080930401DF91CF9108951F920E
:1006C0000F9200905F000F92112400905B000F9238
:1006D0002F933F934F935F936F937F938F939F934A
:1006E000AF93BF93EF93FF93CF93DF93CDB7DEB775
:1006F0008091050190910601A0910701B091080138
:100700000197A109B1098093050190930601A09377
:100710000701B09308018091050190910601A09115
:100720000701B09108010097A105B10591F40E945D
:1007300055038091000190910101A0910201B091B7
:1007400003018093050190930601A0930701B093E4
:100750000801DF91CF91FF91EF91BF91AF919F91F0
:100760008F917F916F915F914F913F912F910F905A
:1007700000925B000F9000925F000F901F90189501
:10078000CF93DF9300D01F92CDB7DEB79B838A83D0
:1007900080E290E0FC018081882F90E081709927B1
:1007A00021E0009709F020E029838A819B81813034
:1007B000910579F08230910589F00097C9F481E0C4
:1007C0009981913009F080E0882F90E09B838A83A3
:1007D00012C082E090E09B838A830DC081E0998102
:1007E000992309F480E0882F90E09B838A8303C0DB
:1007F0001B821A8200008A819B818130910529F435
:100800000E94F3018093170101C000008A819B813F
:100810000F900F900F90DF91CF9108950F931F933A
:10082000CF93DF93CDB7DEB729970FB6F894DEBF2D
:100830000FBECDBF84E290E020EFFC01208385E273
:1008400090E02FE0FC01208387E290E02FEFFC0195
:10085000208388E290E0FC0110828AE290E02FEF92
:10086000FC0120838BE290E0FC0110828CE091E09F
:100870009987888781E090E09F838E8310920C0196
:100880008EE190E0A0E0B0E080930D0190930E0126
:10089000A0930F01B093100180910D0190910E0172
:1008A000A0910F01B091100180931101909312015A
:1008B000A0931301B093140180EC93E09093160180
:1008C0008093150188859985FC0181819281A3819E
:1008D000B4818A839B83AC83BD8381E0898324C0F8
:1008E0008981882F90E0880F991F9E012F5F3F4FCD
:1008F000820F931F0796FC0180819181FC01218169
:100900003281438154818A819B81AC81BD81BC014C
:10091000CD010E946700DC01CB018A839B83AC83FD
:10092000BD8389818F5F89838981282F30E08E8103
:100930009F8128173907A0F28A819B81AC81BD81F4
:10094000BC01CD010E94E7020E9414031982A6C0D7
:100950008981882F90E0880F991F9E012F5F3F4F5C
:10096000820F931F0796FC0180819181FC012581F4
:100970003681478150858981882F90E0880F991FA3
:10098000BE016F5F7F4F860F971F0796FC01808126
:100990009181FC0181819281A381B481281739075B
:1009A0004A075B0709F049C08981882F90E0880FCA
:1009B000991F9E012F5F3F4F820F931F0796FC01E7
:1009C000008111818981882F90E0880F991F9E01F5
:1009D0002F5F3F4F820F931F0796FC01808191810B
:1009E000FC01218532858981882F90E0880F991F2D
:1009F000AE014F5F5F4F840F951F0796FC0180810A
:100A00009181FC018081992787FD9095F9010995D5
:100A1000F80180838981882F90E0880F991F9E01BB
:100A20002F5F3F4F820F931F0796FC0180819181BA
:100A3000FC0115821682178210868981882F90E02A
:100A4000880F991F9E012F5F3F4F820F931F0796BC
:100A5000FC01608171818981882F90E0880F991F46
:100A60009E012F5F3F4F820F931F0796FC018081ED
:100A70009181FC0125813681478150858A819B8146
:100A8000AC81BD81820F931FA41FB51FFB0185831D
:100A90009683A783B08789818F5F89838981282F77
:100AA00030E08E819F812817390708F451CF0E94CA
:100AB000BE0081E00E946301809117010E9408013D
:100AC0000000809104018823E1F3109204013ECFDD
:100AD000A1E21A2EAA1BBB1BFD010DC0AA1FBB1F42
:100AE000EE1FFF1FA217B307E407F50720F0A21BB4
:100AF000B30BE40BF50B661F771F881F991F1A9421
:100B000069F760957095809590959B01AC01BD014A
:080B1000CF010895F894FFCF16
:040B180001000000D8
:00000001FF
